:100000000C942A000C943F000C943F000C943F0089
:100010000C943F000C943F000C943F000C943F0064
:100020000C943F000C943F000C943F000C943F0054
:100030000C943F000C943F000C943F000C943F0044
:100040000C943F000C943F000C943F000C943F0034
:100050000C943F0011241FBECFE5D8E0DEBFCDBF1A
:1000600010E0A0E6B0E0EAE0F5E002C005900D92F5
:10007000A838B107D9F70E94F6000C9483020C94BB
:100080000000089580E00E94E40081E00E94E40006
:1000900082E00E94E40083E00E94E40082E00E948B
:1000A0008001882331F083E00E948001811124C007
:1000B00012C080E00E94C00081E00E94C00082E087
:1000C0000E94C00083E00E94C00082E00E94800184
:1000D0008823D9F3E8CF80E00E94D20081E00E941B
:1000E000D20082E00E94D20083E00E94D20083E02E
:1000F0000E9480018823D9F384E00E94800181114D
:1001000011C080E00E94C00081E00E94C00082E037
:100110000E94D20083E00E94D20084E00E9480010D
:100120008823D9F385E00E948001811111C080E00D
:100130000E94D20081E00E94D20082E00E94C000B2
:1001400083E00E94C00085E00E9480018823D9F3EB
:1001500086E00E948001811111C080E00E94E400CD
:1001600081E00E94E40082E00E94E40083E00E94BB
:10017000E40086E00E9480018823D9F30895089561
:10018000CF93DF93C82FD0E0CC0FDD1FC05ADF4FD5
:1001900061E088810E94FF0060E08981DF91CF915A
:1001A0000C94FF00CF93DF93C82FD0E0CC0FDD1F5E
:1001B000C05ADF4F60E088810E94FF0061E08981C2
:1001C000DF91CF910C94FF00CF93DF93C82FD0E045
:1001D000CC0FDD1FC05ADF4F60E088810E94FF0016
:1001E00060E08981DF91CF910C94FF000E949D0116
:1001F0000E94BF000E9441000E944200FDCF982F44
:1002000097708695869586956130C1F5813091F01D
:1002100028F08230D9F0833029F108954BB321E0E2
:1002200030E0B90102C0660F771F9A95E2F7CB0163
:10023000842B3AC048B321E030E0B90102C0660F18
:10024000771F9A95E2F7CB01842B3CC045B321E0A0
:1002500030E0B90102C0660F771F9A95E2F7CB0133
:10026000842B3EC042B321E030E0B90102C0660FEA
:10027000771F9A95E2F7CB01842B40C061113FC0F4
:100280008130A1F028F08230F9F0833059F10895DF
:100290004BB321E030E0B90102C0660F771F9A9599
:1002A000E2F7CB01809584238BBB089548B321E00E
:1002B00030E0B90102C0660F771F9A95E2F7CB01D3
:1002C0008095842388BB089545B321E030E0B901CF
:1002D00002C0660F771F9A95E2F7CB0180958423C1
:1002E00085BB089542B321E030E0B90102C0660F3A
:1002F000771F9A95E2F7CB018095842382BB0895FE
:10030000282F2770869586958695813049F030F0A4
:10031000823041F0833079F480B305C089B303C0E3
:1003200086B301C083B390E002C0959587952A9566
:10033000E2F78170089580E00895E8E6F0E040E09B
:1003400081E090E05191242F2770342F3695369517
:100350003695513009F445C020F0523009F486C07A
:10036000CDC0313011F198F0323069F1333009F0FD
:10037000C5C051B3BC0102C0660F771F2A95E2F7D2
:100380009B01352F322B31BB32B320956DC05AB350
:10039000BC0102C0660F771F2A95E2F79B01352F3B
:1003A000322B3ABB3BB320953FC057B3BC0102C0D0
:1003B000660F771F2A95E2F79B01352F322B37BB4B
:1003C00038B3209540C054B3BC0102C0660F771FFC
:1003D0002A95E2F79B01352F322B34BB35B320959C
:1003E00041C0313019F198F0323079F1333009F0F1
:1003F00085C051B3BC0102C0660F771F2A95E2F792
:100400009B012095352F322331BB32B32DC05AB317
:10041000BC0102C0660F771F2A95E2F79B01209569
:10042000352F32233ABB3BB3232345C057B3BC011E
:1004300002C0660F771F2A95E2F79B012095352FA2
:10044000322337BB38B3232346C054B3BC0102C0A8
:10045000660F771F2A95E2F79B012095352F3223EF
:1004600034BB35B3232347C0232347C0313029F1A0
:10047000A0F0323091F1333009F040C051B3BC01EB
:1004800002C0660F771F2A95E2F79B01362F309541
:10049000352331BB32B3232B30C05AB3BC0102C069
:1004A000660F771F2A95E2F79B01362F309535238B
:1004B0003ABB3BB3232B2BBB21C057B3BC0102C0BB
:1004C000660F771F2A95E2F79B01362F309535236B
:1004D00037BB38B3232B28BB11C054B3BC0102C0B7
:1004E000660F771F2A95E2F79B01362F309535234B
:1004F00034BB35B3232B25BB01C022BB4F5F413238
:0A05000009F020CF0895F894FFCF12
:10050A0018191A1B1C1D1E1F0100020202020201F9
:10051A0000000000000000000000000000000000D1
:08052A000000000000000000C9
:00000001FF
